:0A0000000C945D000C9400000C94B9
:10000A0000000C9400000C9400000C9400000C9466
:10001A0000000C9400000C9400000C9400000C9456
:10002A0000000C9400000C9400000C9400000C9446
:10003A00EF020C9400000C9400000C9400000C9445
:10004A0000000C9400000C9400000C9400000C9426
:10005A0000000C9400000C9400000C9400000C9416
:10006A0000000C9400000C9400000C94FB020C9409
:10007A0000000C9400000C9400000C9400000C94F6
:10008A000000FF00FF00FF00FF000000000000006A
:10009A00010006058C00010007058E000100080515
:1000AA009000010009059200060004009400000077
:1000BA00F894EE27ECBBF1E0F5BFE5BFE0936C00E6
:1000CA00F8E1F1BDE1BD8DE0A2E0BB27ED938A9591
:1000DA00E9F780E090E1A0E0B1E0ED930197E9F75C
:1000EA00EAE9F0E085919591009761F0A591B591C3
:1000FA0005901590BF01F00105900D920197E1F767
:10010A00FB01F0CFEFEFEDBFE0E1EEBFC0E0D5E0DD
:10011A000C948F00ADD20E949E03E2E06E2AE4E0C6
:10012A006E2A0E949E03A4E6B0E00E94CA030E94BF
:10013A00A3039DD1AE2F05D01BD20E949E03F9CFF7
:10014A00FFCFAA932497E0E0E883E983EA83EB836D
:10015A000E94FF0300E010E020E030E040E050E0C1
:10016A00809903C001E010E002C000E010E081992C
:10017A0003C021E030E002C020E030E0829903C0F1
:10018A0041E050E002C040E050E0839905C0E1E060
:10019A00F0E0E887F98703C0E0E0E887E987849917
:1001AA0005C0E1E0F0E0EE83FF8303C0E0E0EE8308
:1001BA00EF83F901EE0FFF1FE00FF11FDF01FA01D4
:1001CA000E94DA03AE0FBF1FE885F9850E94D803A3
:1001DA00EA0FFB1FBF01EE81FF81A8E2B0E00E9497
:1001EA00EC03E60FF71FE0930405F09305050A995F
:1001FA0014C0859908C0E0910405F0910505E093C3
:10020A000005F0930105869908C0E0910405F09174
:10021A000505E0930205F0930305A0E09C99A1E08F
:10022A00A030D1F4A0910005B09101051697A1F074
:10023A00A0E09B99A1E0A03079F4A0E00499A1E0A4
:10024A00A03051F4A0E08599A1E0A03029F0A0E007
:10025A008699A1E0A03009F403C0E0E27E2A02C038
:10026A00EFED7E22E0910005F0910105E330A0E078
:10027A00FA0731F4EA85E03011F0E1E07E2AEEC0B7
:10028A00E430A0E0FA0731F4EA85E03011F0E1E069
:10029A007E2AE4C0E530A0E0FA0719F4EEEF7E22E8
:1002AA00DDC0E630A0E0FA0711F00C94CB01E4E0DF
:1002BA006E2A3FD2CED147D2119771F4059B02C064
:1002CA0047D20CF009C0049903C0E0E19E2A02C09B
:1002DA00EFEE9E222ED2F2CF36D2129771F4069BFF
:1002EA0002C036D20CF009C0049903C0E0E19E2A8C
:1002FA0002C0EFEE9E221DD2F2CF25D2139771F4DF
:10030A00079B02C025D20CF009C0049903C0E0E1A2
:10031A009E2A02C0EFEE9E220CD2F2CF14D214977C
:10032A0071F4C89B02C014D20CF009C0049903C02E
:10033A00E0E19E2A02C0EFEE9E22FBD1F2CF08D264
:10034A0014F58DD1E2E06E2AF4D183D1A0E09F9911
:10035A00A1E0E1E00E94DF030E2EA0E00499A1E0F3
:10036A00E1E00E94DF03E02911F0F2D10CF009C0AC
:10037A00049903C0E0E19E2A02C0EFEE9E22D9D181
:10038A00E5CFDCD16CD1DAD16AD168C0E730A0E020
:10039A00FA0719F4E8E07E2A61C0E830A0E0FA071B
:1003AA0019F4E0E17E2A5AC0E930A0E0FA0729F4FC
:1003BA00EFEE7E22E7EF7E2251C0E832A0E0FA0794
:1003CA00C1F4E0E4CAD145D1A0E09999A1E0E1E005
:1003DA00C8D1CED1E0E00E94DF03E02911F0B8D104
:1003EA000CF001C0F1CFEEEF7E22EFEB6E2237D197
:1003FA0035C0E932A0E0FA07D1F4E0E1AED129D163
:10040A00BFD1E1E00E94DF030E2AA0E09D99A1E09E
:10041A00E0E00E94DF03E02911F09AD10CF001C05C
:10042A00EFCFEEEF7E22EFEE6E2219D117C0EA323D
:10043A00A0E0FA0799F4E0E290D10BD1A1D198D1CA
:10044A00E1E00E94DF03E02911F082D10CF001C043
:10045A00F5CFEEEF7E22EFED6E2201D1E0E0E093E0
:10046A000005E09301050E9406042B9608951A934D
:10047A0010E0A0E0CA99A1E0A030C9F4A0E0029976
:10048A00A1E0A030A1F4A0E09C99A1E0A03079F409
:10049A00A0E0CD99A1E0A03051F4A0E0CC99A1E070
:1004AA00A03029F4A0E00399A1E0A03009F004C02B
:1004BA0011E0E4E09E2A03C010E0EBEF9E229A9935
:1004CA0003C0E8E06E2A02C0E7EF6E22879903C0F4
:1004DA00E4E07E2A02C0EBEF7E22A0E00B99A1E0C5
:1004EA00A03011F4103009F405C0E0E47E2AE2E0FD
:1004FA007E2A04C0EFEB7E22EDEF7E22E12F1991D6
:10050A000895AA93EB81A0910605EA1741F0C698CF
:10051A00EFB9779BFECFC69AEB81E0930605EA8195
:10052A00A0910705EA1741F0C598EFB9779BFECF6E
:10053A00C59AEA81E0930705E981A0910805EA17BF
:10054A0041F0C498EFB9779BFECFC49AE981E09352
:10055A000805E881A0910905EA1741F0C098EFB9AA
:10056A00779BFECFC09AE881E09309052496089507
:10057A00CC9903C0E1E09E2A02C0EEEF9E22CD99FB
:10058A0003C0E2E09E2A02C0EDEF9E229C9903C0BE
:10059A00E8E09E2A02C0E7EF9E22049903C0E0E148
:1005AA009E2A02C0EFEE9E22999903C0E0E29E2A9B
:1005BA0002C0EFED9E22989903C0E0E49E2A02C091
:1005CA00EFEB9E229D9903C0E0E89E2A02C0EFE766
:1005DA009E220895EA93FA93EFB7EA93F2013196CD
:1005EA002F01E991EFBFF991E9911895AA93BA936E
:1005FA00EA93FA93EFB7EA93AAE0B5E0ED91FD9199
:10060A003196FE93EE93A0910A05B0910B05A93598
:10061A00E2E0BE072CF0E0E0E0930A05E0930B0568
:10062A00A0910B05AA2332F0A0910A05B0910B05FF
:10063A005E970CF007C09B9903C0E1E06E2A02C0E6
:10064A00EEEF6E22E991EFBFF991E991B991A99183
:10065A00189544245524E0E0EFBDE4E004C04424A6
:10066A005524E0E0EFBDEEBDE0E0EDBDECBD089540
:10067A00E0E0EBBBEABBE8BBE7E7E7BBE0E0E5BBF2
:10068A00E4BBE2BBE1BBE3B9E2B9EFEFE09362009E
:10069A00E0E0E0936100EFE1E0936500E0E0E093E1
:1006AA006400E0BFE3BFE2BFE1BFEFBDEEBDEDBD59
:1006BA00ECBDE7BDE6BDEBBDEABDE9BDE8BDE09333
:1006CA007900E0937800E5BDE4BDE3BDE0938B00DB
:1006DA00E4E0E0938A00E0E0E0938900E093880098
:1006EA00E0938100E0938000E0938700E093860026
:1006FA00E0938500E0938400E0938300E093820016
:10070A00E0936A00EABFE9BFE4E0E7BFE0937D0057
:10071A00E0E0EAB9E0939A00E0E8E8B9E0E0E0BD99
:10072A00E6B9E3E5EDB9E0E0EEB9E0937400789458
:10073A0008957A926A929A92A82DE3CEEBEF6E22EE
:10074A00EDEF6E22F6CFA0910205B0910305089550
:10075A00E4E1F0E04E165F0608956E2AE1E07E2A93
:10076A00E8CF0E94DF030E2EA0E09899A1E0089539
:10077A00E0E00E94DF030E2AA0E09D99A1E008951F
:10078A00A0E09999A1E0E0E0ECCF109639F080EA78
:10079A009FE00197F1F7A8951197C9F70895F19588
:1007AA00E195F0400895EE0FFF1FEE0FFF1FEE0FC9
:1007BA00FF1F0895EA17E1E009F0EE270895FA9F6E
:1007CA00F02DEB9FF00DEA9FE02DF10D089504D076
:1007DA00F6DF0EF4E4DF0895E894F7FF02C0DFDFE6
:1007EA006894B7FF06C0A095B095119600F80394D7
:1007FA0000FA08955A934A933A932A931A930A93BA
:10080A0008955D814C813B812A811981088108956F
:00000001FF
